:1000000080316A28080008007E1480318B1D092881
:100010000A2812280B1C0D280E2812288631F526D6
:10002000803168288B1E152816281E280B1D1928BC
:100030001A281E2886313B26803168280B1F21286C
:10004000222868282100931C2628272830282000F1
:10005000931C2B282C283028863180268031682854
:100060002100121F342835283E282000121F39286D
:100070003A283E2887316227803168282100921E65
:10008000422843284C282000921E472848284C2804
:1000900087317027803168282100931E502851280D
:1000A0005A282000931E552856285A288631E326C0
:1000B000803168282100931D5E285F286828200071
:1000C000931D63286428682886316A268031682851
:1000D0007E10090080316C288F3151278031E40077
:1000E0008F3152278031E5008F3153278031E60070
:1000F000393084000030850019308F3180278031FD
:10010000A03084000030850010308F31802780318E
:100110007E1020008131802920006408D200D301A4
:100120005208E2005308E300B430F0000030F10060
:100130006308F3006208F2008531092580317108F7
:100140002000E3007008E200D730F0000030F1003A
:100150006308F3006208F2008331172380317108CD
:100160002000E3007008E2000030D9000030D80021
:100170000030D7000030D600DA01DB0120005A0839
:10018000A03E860087010108D200D301D401D50129
:100190005208D6075308D73D5408D83D5508D93DD5
:1001A0000130DA070030DB3D5B08803AD200803056
:1001B0005202031DDD2810305A02031CE028E128FA
:1001C000BE2820005608D2005708D3005808D40093
:1001D0005908D5000430D536D40CD30CD20C890B79
:1001E000EB285508D9005408D8005308D700520806
:1001F000D60002308531D125803170082000DE0024
:100200007108DF00E001E1015E08D2005F08D30061
:100210006008D4006108D5000C30D235D30DD40D60
:10022000D50D890B0D295508E1005408E00053084D
:10023000DF005208DE000030F3000030F20027300B
:10024000F100F630F0006108F7006008F6005F0882
:10025000F5005E08F4008131F6218031730820003A
:10026000E1007208E0007108DF007008DE0051084C
:10027000D2000430D235890B3A296608FF3E520479
:100280008038B339C1006308D3006208D200D33686
:10029000D20C52087F39C2005608D2000130D23544
:1002A000FF3E031D4F2952357F39C3005E357F392C
:1002B000C400873135278031003A0319602961294C
:1002C0007F292000DC01DD0120005C08413E860022
:1002D000870101088731ED27803101302000DC07DC
:1002E0000030DD3D5D08803AD20080305202031DAF
:1002F0007B2904305C02031C7E297F2964290800C5
:100300008331532381318C302100B0000030B100A3
:100310008F31EE27813116302100B0000730B10057
:100320008F31F727813106302100B0000730B1004E
:100330008731F727813187302100B0000330B100C9
:100340008F31AF278131EC302100B0000530B10092
:100350008F31D32781317D302100B0000530B100CD
:100360008F31DC278131B5302100B0000530B1007C
:100370008F319D27813199302100B0000530B100C7
:100380008F31A62781318B170B178231942281314F
:100390008331EA2381312100B7018F316F27813109
:1003A000003A0319D429D529CD29DB2987312627FD
:1003B00081312100B7008F316F278131003A031D51
:1003C000E229E329D62921003708013E2000E50073
:1003D0005108031DEC29ED29CD298331EA23813110
:1003E000843171248131CD2980316A280030FC00AC
:1003F0000030FB000030FA000030F900730872048E
:10040000710470040319052A062A472AFD01FD0A12
:10041000142A0130F035F10DF20DF30D890B0A2A83
:100420000130F8007808FD07F31F172A182A092A57
:100430000130F935FA0DFB0DFC0D890B192A7308F3
:100440007702031D2D2A72087602031D2D2A7108DA
:100450007502031D2D2A70087402031C302A312AEC
:100460003A2A7008F4027108F53B7208F63B7308EB
:10047000F73B79140130F336F20CF10CF00C890BD8
:100480003B2A0130FD02031D462A472A182A7C0810
:10049000F3007B08F2007A08F1007908F000080008
:1004A00020004F08031D552A562A5B2A4E080319BF
:1004B0005A2A5B2A7F2A00302100B000B100853122
:1004C00045258231932A22008C17043020006606CD
:1004D000031D6B2A6C2A6D2A5B2A99302100B0001B
:1004E0000130B100853145258231932A22008C13D9
:1004F00020006603031D7D2A7E2A6D2A5B2A51088F
:100500002100B400B5013508003A0319882A932A5E
:100510003408003A03195B2A013A0319632A033AA3
:100520000319762A932A08002100B1010930853188
:10053000282582312100B1010A30853128258231F8
:100540002100B1010C30853128258231073021008E
:10055000B1000B308531282582312100B101B10A6B
:100560000C308531282582312100B101B10A0F30CC
:100570008531282582310B302100B4002630B300AC
:100580005D30890BC12AB30BC12AB40BC12A0032DA
:100590002100B1010F308531282582312100B101C0
:1005A000B10A0C30853128258231080020004F081F
:1005B000031DDB2ADC2AE12A4E080319E02AE12A7E
:1005C000032B0030F000F100863153268231162BC8
:1005D00022008C17043020006606031DF02AF12A41
:1005E000F22AE12A9930F0000130F10086315326D9
:1005F0008231162B22008C1320006603031D012B71
:10060000022BF22AE12A5108F400F5017508003A9C
:1006100003190B2B162B7408003A0319E12A013A2F
:100620000319E82A033A0319FA2A162B0800F501E0
:10063000F6017008710403191E2B1F2B4E2BF701B6
:10064000F70A2B2B0130F035F10D890B232B0130EC
:10065000F4007408F707F11F2E2B2F2B222B0130EB
:10066000F535F60D890B302B71087302031D3A2BFB
:1006700070087202031C3D2B3E2B432B7008F202C4
:100680007108F33B75140130F136F00C890B442BE3
:100690000130F702031D4D2B4E2B2F2B7608F10056
:1006A0007508F00008008731E22783318331BA23CF
:1006B00083318F31862783318F315C2783318731B6
:1006C000BE2783318F31742783318F31582783318F
:1006D0008631BE2683318F31952783318631962628
:1006E00083318631AB2683318731CA278331863106
:1006F000D12683318F318D2783318F31E5278331A7
:100700008731B22783318431C0248331080020002F
:100710008C1F8B2B8C2B912B0130F2007208E4077D
:10072000932B0130E4028F3154278331003A0319AF
:100730009A2B9B2BA72B0130F20072082000CD07CB
:100740004D08A03E8600870181011110B22B0130B7
:10075000F20072082000CD074D08A03E86008701F8
:100760007008810010304D02031CB72BB82BB92B39
:10077000CD01080022008C0102308D0037302100AD
:100780008C00ED308D0023008D0107308C0024009B
:100790008D018C0121009517C03022009D00013091
:1007A0009E00270016109611151495151414941513
:1007B0003F302100B0000F30B1008F31D32783319B
:1007C00040302100B0000F30B1008F31DC27833181
:1007D0008B150800200066086506031DF02BF12B21
:1007E000F32BD101152C650866020318F82BF92BA1
:1007F000082C02305106031DFE2BFF2B042CCE01CA
:10080000CE0A8F314E2783312000D101D10A152C19
:100810005103031D0C2C0D2C122CCE01CE0A8F314E
:100820004E27833102302000D100823150228331A3
:100830000800200066086506031D1F2C202C222CB2
:10084000D101442C650866020318272C282C372C6C
:1008500002305106031D2D2C2E2C332CCE01CE0A36
:100860008F31452784312000D101D10A442C510316
:10087000031D3B2C3C2C412CCE01CE0A8F31452749
:10088000843102302000D1008231D6228431080028
:100890002100B3003108B2000130B235FF3E031D24
:1008A0004D2C3235B400B5013308393E860087013E
:1008B000340887317E278431810001302100B20065
:1008C0003208B4070130B2003208B3070130B20079
:1008D0003208B50704303502031C6F2C702C542CE1
:1008E0000800200066082100B1000030843148244F
:1008F000843120005108031D7E2C7F2C832C0C306A
:100900002100B6008F2C5103031D872C882C8C2CC2
:100910000A302100B6008F2C0B302100B6003608BB
:10092000B10004308431482484318531612584311B
:100930000800F3007108F2000130F235FF3E031D9C
:100940009D2C7235F400F5017308393E860087014D
:1009500074088731D627843181000130F200720893
:10096000F4070130F2007208F3070130F200720858
:10097000F50704307502031CBE2CBF2CA42C080004
:10098000083023009F0090309D00A4309E00673007
:100990009B009C0100302100B0000030B1008F317D
:1009A000C127843100302100B0000030B1008F3108
:1009B000CA27843100302100B0000030B1008F31EF
:1009C000B82784312000D001080020006608F1001B
:1009D000003084319924843120005108031DF12C0A
:1009E000F22CF52C0C30F600FF2C5103031DF92CD2
:1009F000FA2CFD2C0A30F600FF2C0B30F60076089E
:100A0000F100043084319924843186310726843101
:100A10000800F401F501701C0E2D0F2D132D720826
:100A2000F4077308F53D0130F235F30D890B142DF1
:100A30000130F136F00C890B192D70087104031D7B
:100A4000222D232D0B2D7508F1007408F0000800ED
:100A50002100B20022008D10210032088F317A2748
:100A600085312000911D352D362D312D911121001C
:100A700031088F317A2785312000911D402D412D7D
:100A80003C2D911122008D14080021003108B30083
:100A90003008B200B336B20CB336B20C32082600BE
:100AA0009100210030080339B2000430B235890BBF
:100AB000562D26001308CF3921003204260093005A
:100AC00008002100B4014030B3003408B3023308F9
:100AD000860087010108B1003408013E85312825D0
:100AE000853101302100B3003308B40708303402E7
:100AF000031C7B2D7C2D632D080002302000650631
:100B0000031D832D842D8F2D023066060319892D38
:100B10008A2D8F2DCF01CF0A8F31422785310230A8
:100B20002000E6008431192485318431E5248531A3
:100B30000800043020006506031D9F2DA02DAB2D5D
:100B4000043066060319A52DA62DAB2DCF01CF0AC3
:100B50008F314227853104302000E600843119248A
:100B600085318431E5248531080003302000650695
:100B7000031DBB2DBC2DC72D033066060319C12DE7
:100B8000C22DC72DCF01CF0A8F31422785310330C7
:100B90002000E6008431192485318431E524853133
:100BA0000800F3007308F200F20DF20D21001D0899
:100BB0007206833972069D001D140330890BDE2DE9
:100BC000000021009D149D18E62DE72DE32D1C0843
:100BD000F1001B08F00008002000E4016503031D7C
:100BE000F22DF32DFD2D66030319F72DF82DFD2DA4
:100BF000CF01CF0A8F31422785312000E601E60A76
:100C00008431192485318431E52485310800F401CB
:100C10004030F3007408F30273088600870101086E
:100C2000F1007408013E8631212686310130F3003F
:100C30007308F40708307402031C1F2E202E082EA0
:100C40000800F20022008D1072088F316027863173
:100C50002000911D2C2E2D2E282E911171088F31E0
:100C6000602786312000911D362E372E322E9111AD
:100C700022008D1408000B11200038089500013067
:100C8000CB070030CC3D00304C02C83003194B027A
:100C9000031C4B2E4C2E522E8731A5278631200067
:100CA000CB01CC0108007108F3007008F200F336A4
:100CB000F20CF336F20C720826009100700803392A
:100CC000F2000430F235890B622E1308CF3972041A
:100CD00093000800200093110130C7070030C83D81
:100CE00001304802903003194702031C782E792EF8
:100CF0007F2E87318B2786312000C701C80108006D
:100D0000200093100130C5070030C63D0030460278
:100D1000643003194502031C8E2E8F2E952E8731C9
:100D2000982786312000C501C6010800210015085A
:100D3000C039113895000630200095000630B80003
:100D40000B118B1641302100B0000F30B1008F31F4
:100D5000EE2786310800F93028009D009C01200014
:100D60009311210093150330B0000030B10087319A
:100D7000F7278631493028009E000800F930280006
:100D80009600950120009310210093140230B000CA
:100D90000030B1008F31F7278631493028009700A5
:100DA0000800043026009A00980199013E30210085
:100DB000B0000F30B1008F31AF2786312000931281
:100DC0002100931608002000931226001808F30053
:100DD0001908F4007408F1007308F00020002D08D1
:100DE0008A002C080A00863108002700161CF92EFC
:100DF000FA2EFD2E8731532786312700961D012FAD
:100E0000022F052F87314427863108008F314B2769
:100E1000873100308F316A2787312000CF0184313C
:100E2000192487318431E524873108008F31482720
:100E3000873100308F31652787312000CE01843122
:100E4000192487318431E524873108002000911E60
:100E50002A2F2B2F262FD00123009D1C302F312F1E
:100E6000332F1D121D1619080800F0012000111E55
:100E70003A2F3B2F422F23009E1E3F2F402F422F01
:100E8000F001F00A7008080020002E082F04031952
:100E90004A2F4B2F502F2F088A002E080A00873127
:100EA0002700961108002000300831040319592F3B
:100EB0005A2F5F2F31088A0030080A008731270037
:100EC0001610080020001213260827040319692FA2
:100ED0006A2F6F2F27088A0026080A00873108002A
:100EE00020009212200821040319772F782F7D2FDC
:100EF00021088A0020080A00873108002100B0007C
:100F000030082300910015139513151400000000FC
:100F10002300130808002000240825040319912F3A
:100F2000922F972F25088A0024080A00873108008D
:100F300020002208230403199E2F9F2FA42F23088B
:100F40008A0022080A0087310800200028082904A6
:100F50000319AB2FAC2FB12F29088A0028080A00EB
:100F60008731080020009901970196011110170898
:100F7000AB001608AA0035309800080021001213B3
:100F8000843022009300913094002000121321003D
:100F90001217080021009212843022009100903034
:100FA000920020009212210092160800F0007008B2
:100FB0002300910015139513151400000000230061
:100FC00013080800240094011130950001309200AC
:100FD00021000D12240095120800F0002000111EBF
:100FE000F22FF32FEE2F700823009A000800210043
:100FF00031082000A500210030082000A4000800CE
:08100000113400340134003406
:101E7C00080008000800080028001E1508002800AB
:101E8C001715080028001711080028001E1108005B
:101E9C002800171508008034013404342000110880
:101EAC00013908008230220097000800163021000A
:101EBC0097000800F0007008240091000800F00062
:101ECC007008280095000800F000700828009C009D
:101EDC0008002000110E890C013908008030220006
:101EEC0098001030990008002100B0003008240040
:101EFC0091000800640080010131890B812F0034AE
:101F0C00703021009900980122009601080093304E
:101F1C0021009E009B019C0101309D000800FF30B8
:101F2C0020009B009A01911004309C0008002100B5
:101F3C0031082000A100210030082000A00008007A
:101F4C00210031082000A700210030082000A60045
:101F5C000800210031082000AD00210030082000CD
:101F6C00AC000800210031082000B300210030082B
:101F7C002000B2000800210031082000B700210029
:101F8C0030082000B6000800210031082000B50000
:101F9C00210030082000B400080021003108200086
:101FAC00B100210030082000B000080021003108E9
:101FBC002000AF00210030082000AE0008000C30DB
:101FCC002600930091019201CF3025009E05080058
:101FDC00210031082000A900210030082000A800B1
:101FEC000800210031082000A30021003008200047
:041FFC00A200080037
:020000040001F9
:08000000FF3FFF3FFF3FFF3F00
:04000E00E43FFF3E8E
:10E00000FF0081008100FF00000000000000FF0011
:10E01000C200A10091008E004200890089007600B4
:10E020001F0010001000FF008F00890089007100A0
:10E030007E00890089007200090009000900FF00C4
:10E0400076008900890076004E00910091007E00E4
:10E0500000001800060018000000180060001800FA
:10E06000000000000000000000001800660018001A
:00000001FF
