:1000000080316A28080008007E1480318B1D092881
:100010000A2812280B1C0D280E281228863191263A
:10002000803168288B1E152816281E280B1D1928BC
:100030001A281E288531D725803168280B1F2128D2
:10004000222868282100931C2628272830282000F1
:10005000931C2B282C28302886311C2680316828B8
:100060002100121F342835283E282000121F39286D
:100070003A283E288631FE26803168282100921ECB
:10008000422843284C282000921E472848284C2804
:1000900087310C27803168282100931E5028512871
:1000A0005A282000931E552856285A2886317F2624
:1000B000803168282100931D5E285F286828200071
:1000C000931D6328642868288631062680316828B5
:1000D0007E10090080316C288F31BB278031E2000F
:1000E0008F31BC278031E3008F31BD278031E400A0
:1000F000203084000030850019308F31EB278031AB
:10010000A03084000030850010308F31EB27803123
:100110007E1020008131802920006208D000D101AA
:100120005008E0005108E100B430F0000030F10068
:100130006108F3006008F2008431D724803171082F
:100140002000E1007008E000D730F0000030F1003E
:100150006108F3006008F2008231EC2280317108FE
:100160002000E1007008E0000030D7000030D60029
:100170000030D5000030D400D801D9012000580843
:10018000A03E860087010108D000D101D201D30131
:100190005008D4075108D53D5208D63D5308D73DE5
:1001A0000130D8070030D93D5908803AD00080305E
:1001B0005002031DDD2810305802031CE028E128FE
:1001C000BE2820005408D0005508D1005608D2009F
:1001D0005708D3000430D336D20CD10CD00C890B85
:1001E000EB285308D7005208D6005108D500500814
:1001F000D40002308531A125803170082000DC0058
:100200007108DD00DE01DF015C08D0005D08D1006F
:100210005E08D2005F08D3000C30D035D10DD20D6E
:10022000D30D890B0D295308DF005208DE00510859
:10023000DD005008DC000030F3000030F200273011
:10024000F100F630F0005F08F7005E08F6005D0888
:10025000F5005C08F40082310D2280317308200023
:10026000DF007208DE007108DD007008DC0038086D
:10027000D0000430D035890B3A296408FF3E500481
:100280008038B339A8006108D1006008D000D136A9
:10029000D00C50087F39A9005408D0000130D03567
:1002A000FF3E031D4F2950357F39AA005C357F3949
:1002B000AB008631D1268031003A031960296129CB
:1002C0007F292000DA01DB0120005A08283E860041
:1002D0008701010887318927803101302000DA0742
:1002E0000030DB3D5B08803AD00080305002031DB7
:1002F0007B2904305A02031C7E297F2964290800C7
:100300008331282381318C302100B0000030B100CE
:100310008731A5278131B2302100B0000630B1000D
:1003200087319C278131A2302100B0000630B10016
:100330008731932781315C302100B0000330B10058
:100340008731DB278131BC302100B0000530B1009E
:100350008731C02781314D302100B0000530B10018
:100360008731B727813185302100B0000530B100D9
:100370008731ED27813169302100B0000530B100AF
:100380008731E42781318B170B178431F6248131B3
:1003900022008C1799302100B0000130B100853166
:1003A0003125813115302100B8004B30B700BE3007
:1003B000890BD829B70BD829B80BD829000083316D
:1003C0008F2381312100B9018F31D4278131003A47
:1003D0000319EB29EC29E429F2298631C22681315F
:1003E0002100B9008F31D4278131003A031DF9294A
:1003F000FA29ED2921003908013E2000E3003808E0
:10040000031D032A042AE42983318F238131843197
:100410006C248131E42980316A280030FC000030EE
:10042000FB000030FA000030F90073087204710418
:10043000700403191C2A1D2A5E2AFD01FD0A2B2ABD
:100440000130F035F10DF20DF30D890B212A013049
:10045000F8007808FD07F31F2E2A2F2A202A0130E2
:10046000F935FA0DFB0DFC0D890B302A7308770264
:10047000031D442A72087602031D442A710875027E
:10048000031D442A70087402031C472A482A512A73
:100490007008F4027108F53B7208F63B7308F73BED
:1004A00079140130F336F20CF10CF00C890B522A5E
:1004B0000130FD02031D5D2A5E2A2F2A7C08F3000D
:1004C0007B08F2007A08F1007908F00008002000AB
:1004D0003608031D6C2A6D2A722A35080319712A01
:1004E000722A962A00302100B000B10085313125F2
:1004F0008231AA2A22008C17043020006406031DD2
:10050000822A832A842A722A99302100B00001307D
:10051000B100853131258231AA2A22008C132000B6
:100520006403031D942A952A842A722A380821001C
:10053000B400B5013508003A03199F2AAA2A3408E5
:10054000003A0319722A013A03197A2A033A031965
:100550008D2AAA2A080020003608031DB02AB12AD5
:10056000B62A35080319B52AB62AD82A0030F00071
:10057000F1008531EF258231EB2A22008C170430FF
:1005800020006406031DC52AC62AC72AB62A993048
:10059000F0000130F1008531EF258231EB2A220095
:1005A0008C1320006403031DD62AD72AC72AB62A33
:1005B0003808F400F5017508003A0319E02AEB2A1F
:1005C0007408003A0319B62A013A0319BD2A033AFE
:1005D0000319CF2AEB2A0800F501F601700871040F
:1005E0000319F32AF42A232BF701F70A002B013011
:1005F000F035F10D890BF82A0130F4007408F70783
:10060000F11F032B042BF72A0130F535F60D890B6A
:10061000052B71087302031D0F2B70087202031C57
:10062000122B132B182B7008F2027108F33B751470
:100630000130F136F00C890B192B0130F702031D44
:10064000222B232B042B7608F1007508F0000800FC
:1006500087317E2783318331BE2383318F31F12768
:1006600083318F31C627833187315A2783318F31C8
:10067000C22783318F31D927833186315A2683317E
:100680008731F627833186313226833186314726FA
:1006900083318731662783318F31F8278331863163
:1006A0006D2683318731AE27833187314E278331E1
:1006B000843191248331080020008C1F602B612B32
:1006C000662B0130F2007208E207682B0130E2026B
:1006D0008F31BE278331003A03196F2B702B7C2B8F
:1006E0000130F20072082000B4073408A03E8600F2
:1006F000870181011110872B0130F2007208200060
:10070000B4073408A03E86008701700881001030CD
:100710003402031C8C2B8D2B8E2BB401080020007F
:1007200064086306031D952B962B982BB801BA2BF2
:100730006308640203189D2B9E2BAD2B02303806F4
:10074000031DA32BA42BA92BB501B50A8F31B82704
:1007500083312000B801B80ABA2B3803031DB12B2E
:10076000B22BB72BB501B50A8F31B82783310230D0
:100770002000B800823167228331080022008C01FA
:100780008D01373021008C00EF308D0023008D016A
:1007900007308C0024008D018C0121009517C0309A
:1007A00022009D0001309E0027001610961115149E
:1007B000951514149415A9302100B0000F30B10024
:1007C0008731C0278331AA302100B0000F30B1003B
:1007D0008731B72783318B15080020006408630632
:1007E000031DF32BF42BF62BB801182C63086402BD
:1007F0000318FB2BFC2B0B2C02303806031D012C9D
:10080000022C072CB501B50A8F31AF2783312000A8
:10081000B801B80A182C3803031D0F2C102C152C06
:10082000B501B50A8F31AF27833102302000B800FF
:100830008231AB22833108002100B3003108B200BD
:100840000130B235FF3E031D212C3235B400B50115
:100850003308203E86008701340887311A27843107
:10086000810001302100B2003208B4070130B2002B
:100870003208B3070130B2003208B5070430350240
:10088000031C432C442C282C0800F3007108F200B0
:100890000130F235FF3E031D492C7235F400F5019D
:1008A0007308203E860087017408873172278431DF
:1008B00081000130F2007208F4070130F200720882
:1008C000F3070130F2007208F50704307502031CCB
:1008D0006A2C6B2C502C0800200064082100B10009
:1008E000003084311C24843120003808031D792C09
:1008F0007A2C7E2C0C302100B6008A2C3803031D84
:10090000822C832C872C0A302100B6008A2C0B30D5
:100910002100B6003608B100043084311C24843133
:100920000800083023009F0090309D00A4309E00F6
:1009300067309B009C0100302100B0000030B10006
:100940008731D227843100302100B0000030B1005F
:100950008731C927843100302100B0000030B10058
:100960008F31DF2784312000B701080020006408A0
:10097000F100003084314524843120003808031D03
:10098000C22CC32CC62C0C30F600D02C3803031D0F
:10099000CA2CCB2CCE2C0A30F600D02C0B30F60013
:1009A0007608F10004308431452484310800F401D4
:1009B000F501701CDC2CDD2CE12C7208F4077308A7
:1009C000F53D0130F235F30D890BE22C0130F136A3
:1009D000F00C890BE72C70087104031DF02CF12C2E
:1009E000D92C7508F1007408F000080021000D08EA
:1009F000FD398D00B101B10A0F30853114258431E4
:100A00000B302100B4002630B3005D30890B062D79
:100A1000B30B062DB40B062D00322100B1010F30AF
:100A200085311425843108002100B20022008D1088
:100A3000210032088F31E52785312000911D212DBD
:100A4000222D1D2D9111210031088F31E52785318F
:100A50002000911D2C2D2D2D282D911122008D145B
:100A6000080021003108B3003008B200B336B20CE0
:100A7000B336B20C32082600910021003008033949
:100A8000B2000430B235890B422D26001308CF394D
:100A90002100320426009300080002302000630683
:100AA000031D532D542D5F2D023064060319592D5B
:100AB0005A2D5F2DB601B60A8F31AC278531023031
:100AC0002000E4008331ED2385318431B624853163
:100AD0000800043020006306031D6F2D702D7B2D50
:100AE000043064060319752D762D7B2DB601B60AE8
:100AF0008F31AC27853104302000E4008331ED23B1
:100B000085318431B6248531080003302000630626
:100B1000031D8B2D8C2D972D033064060319912D09
:100B2000922D972DB601B60A8F31AC27853103304F
:100B30002000E4008331ED2385318431B6248531F2
:100B40000800F3007308F200F20DF20D21001D08F9
:100B50007206833972069D001D140330890BAE2D79
:100B6000000021009D149D18B62DB72DB32D1C0833
:100B7000F1001B08F00008002000E2016303031DE0
:100B8000C22DC32DCD2D64030319C72DC82DCD2D26
:100B9000B601B60A8F31AC2785312000E401E40AA2
:100BA0008331ED2385318431B624853108000B1162
:100BB00020004F0895000130B2070030B33D0030EF
:100BC0003302C83003193202031CE72DE82DEE2D45
:100BD0008731412785312000B201B3010800710837
:100BE000F3007008F200F336F20CF336F20C7208E0
:100BF0002600910070080339F2000430F235890BA9
:100C0000FE2D1308CF3972049300080020009311C1
:100C10000130AE070030AF3D01302F029030031994
:100C20002E02031C142E152E1B2E873127278631EA
:100C30002000AE01AF010800200093100130AC0786
:100C40000030AD3D00302D02643003192C02031C2E
:100C50002A2E2B2E312E8731342786312000AC01ED
:100C6000AD01080021001508C03911389500063083
:100C7000200095000630CF000B118B16AB30210001
:100C8000B0000F30B1008731A52786310800F93058
:100C900028009D009C012000931121009315033032
:100CA000B0000030B10087319327863149302800E9
:100CB0009E000800F930280096009501200093104E
:100CC000210093140230B0000030B10087319C271E
:100CD00086314930280097000800043026009A0029
:100CE00098019901A8302100B0000F30B100873180
:100CF000DB27863120009312210093160800200084
:100D0000931226001808F3001908F4007408F10083
:100D10007308F000200046088A0045080A00863162
:100D200008002700161C952E962E992E8631EF2648
:100D300086312700961D9D2E9E2EA12E8631E026FF
:100D4000863108008F31B527863100308F31CF27AB
:100D500086312000B6018331ED2386318431B624FB
:100D6000863108008F31B227863100308F31CA2793
:100D700086312000B5018331ED2386318431B624DC
:100D8000863108002000911EC62EC72EC22EB70144
:100D900023009D1CCC2ECD2ECF2E1D121D16190802
:100DA0000800F0012000111ED62ED72EDE2E2300C3
:100DB0009E1EDB2EDC2EDE2EF001F00A70080800ED
:100DC0002000470848040319E62EE72EEC2E4808B9
:100DD0008A0047080A008631270096110800200083
:100DE00049084A040319F52EF62EFB2E4A088A00FC
:100DF00049080A0086312700161008002000121347
:100E00003F0840040319052F062F0B2F40088A00C6
:100E10003F080A00873108002000921239083A047E
:100E20000319132F142F192F3A088A0039080A00C2
:100E3000873108002100B00030082300910015130D
:100E4000951315140000000023001308080020006B
:100E50003D083E0403192D2F2E2F332F3E088A0004
:100E60003D080A008731080020003B083C040319B4
:100E70003A2F3B2F402F3C088A003B080A0087315D
:100E800008002000410842040319472F482F4D2F26
:100E900042088A0041080A008731080020009901B1
:100EA0009701960111101708C4001608C3003530C9
:100EB0009800080021001213843022009300913022
:100EC0009400200012132100121708002100921232
:100ED0008430220091009030920020009212210074
:100EE00092160800F0007008230091001513951366
:100EF00015140000000023001308080024009401CA
:100F0000113095000130920021000D12240095123D
:100F10000800F0002000111E8E2F8F2F8A2F7008DE
:100F200023009A000800210031082000BE002100A3
:100F300030082000BD000800210031082000BC005E
:100F4000210030082000BB000800210031082000EB
:100F5000C200210030082000C10008000C3026002B
:100F6000930091019201CF3025009E0508002100D9
:100F700031082000C800210030082000C700080008
:100F8000210031082000CA00210030082000C900DB
:100F90000800210031082000CC002100300820008A
:100FA000CB000800210031082000CE0021003008CD
:100FB0002000CD000800210031082000C6002100DB
:100FC00030082000C5000800210031082000C000C2
:100FD000210030082000BF00080021003108200057
:100FE000BA00210030082000B9000800FF302000BE
:100FF0009B009A01911004309C00080011340034C9
:041000000134003483
:101F5000080008000800080028001E1508002800D6
:101F60001715080028001711080028001E11080086
:101F700028001715080080340134043420001108AB
:101F80000139080082302200970008001630210035
:101F900097000800F0007008280095000800F00085
:101FA000700828009C0008002000110E890C0139DF
:101FB00008008030220098001030990008002100AD
:101FC0003108BB003008BA0008002100B00030081A
:101FD000240091000800640080010131890BEC2F7E
:101FE0000034703021009900980122009601080009
:101FF000933021009E009B019C0101309D00080050
:020000040001F9
:08000000FF3FFF3FFF3FFF3F00
:04000E00E43FFF3E8E
:10E00000FF0081008100FF00000000000000FF0011
:10E01000C200A10091008E004200890089007600B4
:10E020001F0010001000FF008F00890089007100A0
:10E030007E00890089007200090009000900FF00C4
:10E0400076008900890076004E00910091007E00E4
:10E0500000001800060018000000180060001800FA
:10E06000000000000000000000001800660018001A
:00000001FF
