:1000000080316A28080008007E1480318B1D092881
:100010000A2812280B1C0D280E28122886319B2630
:10002000803168288B1E152816281E280B1D1928BC
:100030001A281E288631CC26803168280B1F2128DB
:10004000222868282100931C2628272830282000F1
:10005000931C2B282C2830288631262680316828AE
:100060002100121F342835283E282000121F39286D
:100070003A283E2887311827803168282100921EAF
:10008000422843284C282000921E472848284C2804
:1000900087312627803168282100931E5028512857
:1000A0005A282000931E552856285A28863189261A
:1000B000803168282100931D5E285F286828200071
:1000C000931D6328642868288631102680316828AB
:1000D0007E10090080316C288F31AD278031E2001D
:1000E0008F31AE278031E3008F31AF278031E400BC
:1000F000393084000030850017308F31D8278031A7
:10010000A03084000030850010308F31D827803136
:100110007E1020008131802920006208D000D101AA
:100120005008E0005108E100B430F0000030F10068
:100130006108F3006008F2008431C724803171083F
:100140002000E1007008E000D730F0000030F1003E
:100150006108F3006008F2008231D9228031710811
:100160002000E1007008E0000030D7000030D60029
:100170000030D5000030D400D801D9012000580843
:10018000A03E860087010108D000D101D201D30131
:100190005008D4075108D53D5208D63D5308D73DE5
:1001A0000130D8070030D93D5908803AD00080305E
:1001B0005002031DDD2810305802031CE028E128FE
:1001C000BE2820005408D0005508D1005608D2009F
:1001D0005708D3000430D336D20CD10CD00C890B85
:1001E000EB285308D7005208D6005108D500500814
:1001F000D400023085318F25803170082000DC006A
:100200007108DD00DE01DF015C08D0005D08D1006F
:100210005E08D2005F08D3000C30D035D10DD20D6E
:10022000D30D890B0D295308DF005208DE00510859
:10023000DD005008DC000030F3000030F200273011
:10024000F100F630F0005F08F7005E08F6005D0888
:10025000F5005C08F4008131FA2180317308200038
:10026000DF007208DE007108DD007008DC004F0856
:10027000D0000430D035890B3A296408FF3E500481
:100280008038B339C1006108D1006008D000D13690
:10029000D00C50087F39C2005408D0000130D0354E
:1002A000FF3E031D4F2950357F39C3005C357F3930
:1002B000C4008631EB268031003A03196029612998
:1002C0007F292000DA01DB0120005A08413E860028
:1002D0008701010887319527803101302000DA0736
:1002E0000030DB3D5B08803AD00080305002031DB7
:1002F0007B2904305A02031C7E297F2964290800C7
:100300008331482381318C302100B0000030B100AE
:100310008731B1278131BC302100B0000630B100F7
:100320008731A8278131AC302100B0000630B10000
:1003300087319F27813115302100B0000330B10093
:100340008731F0278131AA302100B0000530B1009B
:100350008731CC2781313B302100B0000530B1001E
:100360008731C327813173302100B0000530B100DF
:100370008F31EE27813157302100B0000530B100B8
:100380008F31F72781318B170B1799302100B0007F
:100390000130B10085310325813122008C17210005
:1003A000B7018F31C7278131003A0319D829D929DC
:1003B000D129DF298631DC2681312100B7008F3138
:1003C000C7278131003A031DE629E729DA292100F0
:1003D0003708013E2000E3004F08031DF029F129F2
:1003E000D12983317923813184312F248131D1295D
:1003F00080316A280030FC000030FB000030FA0039
:100400000030F90073087204710470040319092A9A
:100410000A2A4B2AFD01FD0A182A0130F035F10D98
:10042000F20DF30D890B0E2A0130F8007808FD0754
:10043000F31F1B2A1C2A0D2A0130F935FA0DFB0D7A
:10044000FC0D890B1D2A73087702031D312A7208DF
:100450007602031D312A71087502031D312A7008C6
:100460007402031C342A352A3E2A7008F4027108EB
:10047000F53B7208F63B7308F73B79140130F3360D
:10048000F20CF10CF00C890B3F2A0130FD02031D28
:100490004A2A4B2A1C2A7C08F3007B08F2007A08BF
:1004A000F1007908F000080020004D08031D592ACA
:1004B0005A2A5F2A4C0803195E2A5F2A832A0030D1
:1004C0002100B000B100853103258231972A220036
:1004D0008C17043020006406031D6F2A702A712ACD
:1004E0005F2A99302100B0000130B1008531032529
:1004F0008231972A22008C1320006403031D812A75
:10050000822A712A5F2A4F082100B400B5013508FC
:10051000003A03198C2A972A3408003A03195F2AF3
:10052000013A0319672A033A03197A2A972A08001D
:1005300020004D08031D9D2A9E2AA32A4C0803195A
:10054000A22AA32AC52A0030F000F1008531F9253E
:100550008231D82A22008C17043020006406031D43
:10056000B22AB32AB42AA32A9930F0000130F1004C
:100570008531F9258231D82A22008C1320006403AA
:10058000031DC32AC42AB42AA32A4F08F400F50184
:100590007508003A0319CD2AD82A7408003A0319BD
:1005A000A32A013A0319AA2A033A0319BC2AD82A12
:1005B0000800F501F601700871040319E02AE12A28
:1005C000102BF701F70AED2A0130F035F10D890BF8
:1005D000E52A0130F4007408F707F11FF02AF12A28
:1005E000E42A0130F535F60D890BF22A7108730201
:1005F000031DFC2A70087202031CFF2A002B052B26
:100600007008F2027108F33B75140130F136F00CFA
:10061000890B062B0130F702031D0F2B102BF12A3B
:100620007608F1007508F000080020008C1F192BD7
:100630001A2B1F2B0130F2007208E207212B013028
:10064000E2028F31B0278331003A0319282B292B7E
:10065000352B0130F20072082000CB074B08A03E7A
:100660008600870181011110402B0130F2007208D1
:100670002000CB074B08A03E860087017008810050
:1006800010304B02031C452B462B472BCB01080097
:1006900087318B2783318331A82383318731F92731
:1006A00083318F31B42783318731672783318F318D
:1006B000CC2783318631642683318F31E62783311D
:1006C00086313C2683318631512683318731732729
:1006D00083318631772683318F31DE27833187312D
:1006E000BA27833187315B27833184317E2483317C
:1006F0000800200064086306031D7F2B802B822BDB
:10070000CF01A42B630864020318872B882B972B37
:1007100002304F06031D8D2B8E2B932BCC01CC0A60
:100720008F31AA2783312000CF01CF0AA42B4F039A
:10073000031D9B2B9C2BA12BCC01CC0A8F31AA270C
:10074000833102302000CF008231542283310800EF
:1007500022008C018D01373021008C00EF308D009C
:1007600023008D0107308C0024008D018C012100B5
:100770009517C03022009D0001309E002700161002
:10078000961115149515141494159B302100B00082
:100790000F30B1008731CC2783319C302100B0006D
:1007A0000F30B1008731C32783318B15080020003B
:1007B00064086306031DDD2BDE2BE02BCF01022C2A
:1007C000630864020318E52BE62BF52B02304F0675
:1007D000031DEB2BEC2BF12BCC01CC0A8F31A12785
:1007E00083312000CF01CF0A022C4F03031DF92BC8
:1007F000FA2BFF2BCC01CC0A8F31A1278331023099
:100800002000CF0082319822833108002100B300FC
:100810003108B2000130B235FF3E031D0B2C3235DA
:10082000B400B5013308393E8600870134088731AA
:1008300034278431810001302100B2003208B4072E
:100840000130B2003208B3070130B2003208B507F8
:1008500004303502031C2D2C2E2C122C08002000F5
:1008600064082100B1000030843106248431200066
:100870004F08031D3C2C3D2C412C0C302100B600B0
:100880004D2C4F03031D452C462C4A2C0A302100C9
:10089000B6004D2C0B302100B6003608B1000430F4
:1008A00084310624843185311F2584310800F3000A
:1008B0007108F2000130F235FF3E031D5B2C7235EA
:1008C000F400F5017308393E86008701740887310A
:1008D0007F27843181000130F2007208F407013073
:1008E000F2007208F3070130F2007208F5070430D5
:1008F0007502031C7C2C7D2C622C08000830230020
:100900009F0090309D00A4309E0067309B009C01AA
:1009100000302100B0000030B1008731DE27843183
:1009200000302100B0000030B1008731D52784317C
:1009300000302100B0000030B1008731E72784315A
:100940002000CE01080020006408F100003084314E
:100950005724843120004F08031DAF2CB02CB32C3A
:100960000C30F600BD2C4F03031DB72CB82CBB2C4C
:100970000A30F600BD2C0B30F6007608F10004308A
:100980008431572484318531C52584310800F40130
:10099000F501701CCC2CCD2CD12C7208F4077308F7
:1009A000F53D0130F235F30D890BD22C0130F136D3
:1009B000F00C890BD72C70087104031DE02CE12C7E
:1009C000C92C7508F1007408F00008002100B2007D
:1009D00022008D10210032088F31D227843120006F
:1009E000911DF32CF42CEF2C9111210031088F3143
:1009F000D22784312000911DFE2CFF2CFA2C91115E
:100A000022008D14080021003108B3003008B20024
:100A1000B336B20CB336B20C320826009100210076
:100A200030080339B2000430B235890B142D26008A
:100A30001308CF392100320426009300080021005A
:100A4000B4014030B3003408B30233088600870194
:100A50000108B1003408013E8431E62485310130BB
:100A60002100B3003308B40708303402031C392DC9
:100A70003A2D212D0800023020006306031D412D70
:100A8000422D4D2D023064060319472D482D4D2D62
:100A9000CD01CD0A8F319E27853102302000E40040
:100AA0008331D72385318431A32485310800043074
:100AB00020006306031D5D2D5E2D692D0430640644
:100AC0000319632D642D692DCD01CD0A8F319E2729
:100AD000853104302000E4008331D723853184310F
:100AE000A32485310800033020006306031D792DFF
:100AF0007A2D852D0330640603197F2D802D852DD9
:100B0000CD01CD0A8F319E27853103302000E400CE
:100B10008331D72385318431A32485310800F30044
:100B20007308F200F20DF20D21001D0872068339E0
:100B300072069D001D140330890B9C2D00002100BE
:100B40009D149D18A42DA52DA12D1C08F1001B0896
:100B5000F00008002000E2016303031DB02DB12D59
:100B6000BB2D64030319B52DB62DBB2DCD01CD0AC8
:100B70008F319E2785312000E401E40A8331D72399
:100B800085318431A32485310800F4014030F3001D
:100B90007408F3027308860087010108F1007408E5
:100BA000013E8531DF2585310130F3007308F407FC
:100BB00008307402031CDD2DDE2DC62D0800F20066
:100BC00022008D1072088F31B82785312000911DC9
:100BD000EA2DEB2DE62D911171088F31B827853163
:100BE0002000911DF42DF52DF02D911122008D1472
:100BF00008007108F3007008F200F336F20CF336C7
:100C0000F20C72082600910070080339F2000430DB
:100C1000F235890B082E1308CF39720493000800AF
:100C2000200093110130C7070030C83D0130480251
:100C3000903003194702031C1E2E1F2E252E8731CC
:100C4000412786312000C701C80108002000931009
:100C50000130C5070030C63D00304602643003193C
:100C60004502031C342E352E3B2E87314E2786310C
:100C70002000C501C601080021001508C039173839
:100C80009500D93020009500D930B8000B118B1693
:100C90009D302100B0000F30B1008731B12786317F
:100CA0000800F93028009D009C01200093112100CC
:100CB00093150330B0000030B10087319F27863193
:100CC000493028009E000800F93028009600950160
:100CD00020009310210093140230B0000030B100C6
:100CE0008731A82786314930280097000800043052
:100CF00026009A00980199019A302100B0000F3027
:100D0000B1008731F027863120009312210093161D
:100D100008002000931226001808F3001908F400B8
:100D20007408F1007308F00020002D088A002C08D8
:100D30000A00863108002700161C9F2EA02EA32E25
:100D40008731092786312700961DA72EA82EAB2EA6
:100D50008631FA26863108008F31A7278631003088
:100D60008F31C22786312000CD018331D7238631D0
:100D70008431A324863108008F31A42786310030C6
:100D80008F31BD2786312000CC018331D7238631B6
:100D90008431A324863108000B1120003808950007
:100DA000280829040319D52ED62EDB2E29088A00FF
:100DB00028080A00863108002000911EE02EE12E4E
:100DC000DC2ECE0123009D1CE62EE72EE92E1D12FF
:100DD0001D1619080800F0012000111EF02EF12E3A
:100DE000F82E23009E1EF52EF62EF82EF001F00AA6
:100DF0007008080020002E082F040319002F012F6F
:100E0000062F2F088A002E080A0087312700961126
:100E1000080020003008310403190F2F102F152F60
:100E200031088A0030080A008731270016100800B0
:100E3000200012132608270403191F2F202F252F07
:100E400027088A0026080A0087310800200092122D
:100E50002008210403192D2F2E2F332F21088A005B
:100E600020080A00873108002100B0003008230064
:100E700091001513951315140000000023001308AA
:100E800008002000240825040319472F482F4D2F60
:100E900025088A0024080A0087310800200022085B
:100EA00023040319542F552F5A2F23088A00220890
:100EB0000A0087310800200099019701960111105E
:100EC0001708AB001608AA0005309800080021009A
:100ED00012138430220093009130940020001213EA
:100EE0002100121708002100921284302200910084
:100EF0009030920020009212210092160800F0001B
:100F000070082300910015139513151400000000BC
:100F10002300130808002400940195010130920079
:100F200021000D12240095120800F0002000111E6F
:100F30009A2F9B2F962F700823009A0008002100FB
:100F400031082000A500210030082000A40008007E
:100F5000210031082000A300210030082000A20059
:100F60000800210031082000A900210030082000DD
:100F7000A80008000C302600930091019201CF30A8
:100F800025009E050800210031082000AF00210047
:100F900030082000AE000800210031082000B10018
:100FA000210030082000B000080021003108200096
:100FB000B500210030082000B400080021003108ED
:100FC0002000B700210030082000B60008002100F2
:100FD00031082000B300210030082000B2000800D2
:100FE000210031082000AD00210030082000AC00B5
:100FF0000800703021009900980122009601080035
:08100000003400340134003417
:101F3400080008000800080028001E1508002800F2
:101F44001715080028001711080028001E110800A2
:101F540028001715080080340134043420001108C7
:101F6400013908001630210097000800F0007008BD
:101F7400240091000800F000700828009500080073
:101F8400F000700828009C0008002000110E890C45
:101F940001390800803022009800103099000800B0
:101FA4002100B00030082400910008006400800182
:101FB4000131890BD92F0034903021009E009B0100
:101FC4009C0101309D000800FF3020009B009A0115
:101FD400911004309C000800210031082000A10069
:101FE400210030082000A000080021003108200052
:0C1FF400A700210030082000A600080013
:020000040001F9
:08000000FF3FFF3FFF3FFF3F00
:04000E00E43FFF3E8E
:10E00000FF0081008100FF00000000000000FF0011
:10E01000C200A10091008E004200890089007600B4
:10E020001F0010001000FF008F00890089007100A0
:10E030007E00890089007200090009000900FF00C4
:10E0400076008900890076004E00910091007E00E4
:10E0500000001800060018000000180060001800FA
:10E06000000000000000000000001800660018001A
:00000001FF
