:1000000080316A28013404347E1480318B1D092824
:100010000A2812280B1C0D280E2812288F31A3271E
:10002000803168288B1E152816281E280B1D1928BC
:100030001A281E288F318327803168280B1F21281A
:10004000222868282100931C2628272830282000F1
:10005000931C2B282C2830288731C727803168280B
:100060002100121F342835283E282000121F39286D
:100070003A283E288F314727803168282100921E78
:10008000422843284C282000921E472848284C2804
:100090008F313827803168282100931E502851283D
:1000A0005A282000931E552856285A288F31EC27AD
:1000B000803168282100931D5E285F286828200071
:1000C000931D6328642868288731B1278031682808
:1000D0007E10090080316C2821008031022080319F
:1000E000C500803103208031C6004D3084000030CF
:1000F000850010308E319A268031B2308400003075
:1001000085000B308E319A2680317E10200083319D
:100110006A2B200027088039B1002735B800A61FB8
:100120009228932894283814380803199828992875
:10013000A928380A031D9D289E28A6280030A7005C
:100140000030A6000030A5000030A400A617A701CB
:10015000B1280030A7000030A6000030A500003014
:10016000A40023088039A8002808B1062335B90067
:10017000A21FBB28BC28BD28391439080319C1287F
:10018000C228D228390A031DC628C728CF28003024
:10019000A3000030A2000030A1000030A000A21790
:1001A000A301DA280030A3000030A2000030A10033
:1001B0000030A0002308220421042004031DE128AC
:1001C000E228FB280030A7000030A6000030A50080
:1001D0000030A4008030A6047F30A7043108A800B6
:1001E0002808A7042708A3002608A2002508A100C4
:1001F0002408A000322A3808031DFF2800290929F5
:100200000030A3000030A2000030A1000030A000A8
:10021000322A3808A800A9012908AB0039082802A9
:10022000AA00031CAB032A087F3EB20000302B3D1E
:10023000B3002708B0002608AF002508AE00240848
:10024000AD000030A7000030A6000030A50000304F
:10025000A4000030B7000030B6000030B500003018
:10026000B400B901712939080319372938295229ED
:100270000130AD35AE0DAF0DB00D890B3929013010
:10028000A435A50DA60DA70D890B4029B71F492937
:100290004A294B2924140130B435B50DB60DB70DDC
:1002A000890B4C2923083002031D602922082F02E4
:1002B000031D602921082E02031D602920082D023C
:1002C000031C632964296D2937172008AD02210812
:1002D000AE3B2208AF3B2308B03B0130A800280802
:1002E000B9071A303902031C7629772933293008D7
:1002F0002F042E042D0403197E297F2998293414F4
:1003000098290130A435A50DA60DA70D890B8229CA
:10031000B71F8B298C298D2924140130B435B50DD4
:10032000B60DB70D890B8E29FF30B207FF30B33DF4
:10033000A61F9B299C298129B901B71FA029A129A2
:10034000BD29FF303405A800FF303505A900FF3076
:100350003605AA007F303705AB002B082A04290494
:1003600028040319B429B529B829B901B90ABD2946
:10037000241CBB29BC29BD29B52939080319C12969
:10038000C229EA290130A4070030A53D0030A63D6E
:100390000030A73D271CCD29CE29EA292408A80032
:1003A0002508A9002608AA002708AB000130AC00E8
:1003B000AB37AA0CA90CA80CAC0BD8292B08A700AA
:1003C0002A08A6002908A5002808A4000130B207C1
:1003D0000030B33D3308803AA80080302802031D66
:1003E000F329FF303202031CF629F729042AFF30D3
:1003F0002000B2000030B3000030A7000030A6009B
:100400000030A5000030A40020003308803AA80086
:1004100080302802031D0E2A013032020318112AEF
:10042000122A1E2A2000B201B3010030A7000030BA
:10043000A6000030A5000030A400B1012000320861
:10044000B800381C242A252A272AA6172B2A7F30F1
:10045000A8002808A6053836A7003108A8002808F3
:10046000A704F2280800F80078080319382A392A66
:100470004D2AF31F3C2A3D2A4D2A7009FA007109C2
:10048000FB007209FC007309FD00FA0A0319FB0A5C
:100490000319FC0A0319FD0A552A7308FD007208A6
:1004A000FC007108FB007008FA0073087204710404
:1004B0007004031D5C2A5D2A662A0030F3000030B8
:1004C000F2000030F1000030F000DC2A9630F90034
:1004D000742A0130F4007408F9070130FD36FC0C71
:1004E000FB0CFA0C890B6E2AFE307D05031D792A60
:1004F0007A2A692A8E2A0130F4007408F90701303B
:10050000FA070030FB3D0030FC3D0030FD3D01307E
:10051000FD36FC0CFB0CFA0C890B882AFF307D059C
:10052000031D932A942A7B2A9E2A0130F902013066
:10053000FA35FB0DFC0DFD0D890B982AFC1BA12A39
:10054000A22AA82A023079020318A72AA82A952AE3
:100550007918AB2AAC2AB42AFF30FA05FF30FB0524
:100560007F30FC05FF30FD050310F90C7908F4001D
:10057000F501F601F7011830F435F50DF60DF70D1C
:10058000890BBC2A7408FA047508FB047608FC047D
:100590007708FD0478080319CE2ACF2AD42AF31F3E
:1005A000D22AD32AD42AFD177D08F3007C08F20052
:1005B0007B08F1007A08F0000800023087311A2722
:1005C000823170082000A6007108A700A801A901C7
:1005D0002608A0002708A1002808A2002908A300D7
:1005E0000C30A035A10DA20DA30D890BF12A230813
:1005F000A9002208A8002108A7002008A6000030B2
:10060000F3000030F2002730F100F630F000290846
:10061000F7002808F6002708F5002608F4008431C2
:10062000C124823173082000A9007208A800710853
:10063000A7007008A6008E3141268231003A0319C6
:10064000222B232B252B2000DB0121003C0820003E
:10065000A0000430A035890B2A2B21004608FF3E5C
:1006600020002004B3398038CD00CE015B08A00003
:100670000130A035FF3E031D392B20357F39CF00D7
:1006800026087F39D0008F3174278231003A031950
:100690004A2B4B2B692B2000A401A5012000240824
:1006A0004D3E8600870101088E31D226823101300D
:1006B0002000A4070030A53D2508803AA000803026
:1006C0002002031D652B04302402031C682B692BB8
:1006D0004E2B0800863117268331DD302100BD0006
:1006E0000230BE008E31C9268331DC302100BD00CE
:1006F0000E30BE008E3188268331E6302100BD00E9
:100700000E30BE008E318E26833165302100BD0053
:100710000430BE008E31B726833135302100BD0054
:100720000730BE008E317C2683314F302100BD0062
:100730000730BE008E318226833181302100BD001A
:100740000730BE008E315826833168302100BD004D
:100750000730BE008E315E2683318B170B172100C8
:10076000C3018E3153268331003A0319B82BB92BBC
:10077000CB2BBF2B8F31932783312100C3008E31C8
:1007800053268331003A031DC62BC72BBA2B2100F9
:100790004308013EC50021004608BE0000308631F6
:1007A0007726833121003C08031DD72BD82BDB2B68
:1007B0000C30C400E52B3C03031DDF2BE02BE32BA7
:1007C0000A30C400E52B0B30C4004408BE000430DE
:1007D0008631772683318631FE2683318531AF25F8
:1007E0008331B12B80316A28031020003C0D3D0D70
:1007F000C3004308031DFD2BFE2B072C0030BD005A
:100800000030BC000030BB000030BA00642C3A0855
:10081000BE003B08BF003C08C0003D08C1001F30BF
:10082000C136C00CBF0CBE0C890B102C3E08C20098
:10083000BC17FF30BA05FF30BB05FF30BC050030E8
:10084000BD059630C302C31F262C272C3F2C43081E
:10085000803A973E03182D2C2E2C2F2CFE2B013086
:10086000BD36BC0CBB0CBA0C890B302C0130BE0061
:100870003E08C307031D3D2C3E2C2F2C542C20304A
:100880004302031C442C452C4F2CFE2B0130BA355F
:10089000BB0DBC0DBD0D890B472C0130C3024308B5
:1008A000031D532C542C462C42080319582C592C48
:1008B000642CBA09BB09BC09BD09BA0A0319BB0AF1
:1008C0000319BC0A0319BD0A080021003C03031DDB
:1008D0006A2C6B2C712C01302000C6004608DC0706
:1008E000742C01302000DC024E30A7004530A600F9
:1008F000E330A5002E30A4004408F0004508F100C4
:10090000890D893B8909F200F300013082313322DD
:10091000843173082000A3007208A2007108A100AE
:100920007008A00080318920843120002308CA008B
:100930002208C9002108C8002008C7004A08A700EB
:100940004908A6004808A5004708A4004030A300B5
:10095000A030A2000030A1000030A000803189202A
:10096000843120002308BD002208BC002108BB0000
:100970002008BA008331F423843120003A08DB00D8
:1009800008000030FC000030FB000030FA000030AE
:10099000F90073087204710470040319D02CD12C6F
:1009A000122DFD01FD0ADF2C0130F035F10DF20DA5
:1009B000F30D890BD52C0130F8007808FD07F31FE3
:1009C000E22CE32CD42C0130F935FA0DFB0DFC0D93
:1009D000890BE42C73087702031DF82C7208760249
:1009E000031DF82C71087502031DF82C70087402A1
:1009F000031CFB2CFC2C052D7008F4027108F53B40
:100A00007208F63B7308F73B79140130F336F20CA9
:100A1000F10CF00C890B062D0130FD02031D112D88
:100A2000122DE32C7C08F3007B08F2007A08F10019
:100A30007908F0000800502D0030BD00BE0086315E
:100A4000E226853122008C17043021004606031966
:100A50002A2D2B2D332D9930BD000130BE0086315B
:100A6000E2268531392D0030BD00BE008631E226F8
:100A7000853122008C13210046030319402D412D9E
:100A8000492D9930BD000130BE008631E226853106
:100A9000642D0030BD00BE008631E2268531642D14
:100AA00021003C08C100C2014208003A0319592D37
:100AB000642D4108003A03191C2D013A0319222D17
:100AC000033A0319392D642D08009A2D0030F000E7
:100AD000F10087319A27853122008C1704302100DC
:100AE00046060319742D752D7D2D9930F0000130C7
:100AF000F10087319A278531832D0030F000F10015
:100B000087319A27853122008C132100460303196F
:100B10008A2D8B2D932D9930F0000130F100873113
:100B20009A278531AE2D0030F000F10087319A27E9
:100B30008531AE2D21003C08F400F5017508003A1E
:100B40000319A32DAE2D7408003A0319662D013A3E
:100B500003196C2D033A0319832DAE2D08002100D3
:100B60003A08031DB42DB52DBB2D46084506031DBF
:100B7000BA2DBB2DBD2DBC01DF2D45084602031843
:100B8000C22DC32DD22D02303C06031DC82DC92D08
:100B9000CE2DBA01BA0A8E313E2685312100BC0124
:100BA000BC0ADF2D3C03031DD62DD72DDC2DBA0149
:100BB000BA0A8E313E26853102302100BC008531D3
:100BC0001B258531080021003A08031DE82DE92D79
:100BD000EF2D46084506031DEE2DEF2DF12DBC012E
:100BE000132E450846020318F62DF72D062E023067
:100BF0003C06031DFC2DFD2D022EBA01BA0A8E31D2
:100C0000352685312100BC01BC0A132E3C03031D8F
:100C10000A2E0B2E102EBA01BA0A8E3135268531D6
:100C200002302100BC0085316525853108008E31F8
:100C3000F02686318631482686318E31A0268631CF
:100C40008E31452686318F31062786318E316426D6
:100C500086318F31C62786318E31AF268631873176
:100C6000DD2786318F31D92786318E31FA268631BC
:100C70008F31B42786318E31A72686318E31C0263A
:100C800086318F31122786318631A02686310800C1
:100C900022008C018D01373021008C00EF308D0057
:100CA00023008D0107308C0024008D018C01210070
:100CB0009517C03022009D0001309E0027001610BD
:100CC000961115149515141494152D302100BD009E
:100CD0000E30BE008E317C2686312E302100BD00C4
:100CE0000E30BE008E31822686318B150800210021
:100CF000C0003E08BF000130BF35FF3E031D7C2E03
:100D00003F35C100C2014008B23E8600870141085C
:100D10008731F2278631810001302100BF003F0872
:100D2000C1070130BF003F08C0070130BF003F08C6
:100D3000C20704304202031C9E2E9F2E832E080001
:100D4000083023009F0090309D00A4309E00673043
:100D50009B009C0100302100BD000030BE008E31A0
:100D60007026863100302100BD000030BE008E317B
:100D70007626863100302100BD000030BE008E3165
:100D80006A2686312100BB0108002100BF00220035
:100D90008D1021003F088E31942686312000911D50
:100DA000D22ED32ECE2E911121003E088E319426C4
:100DB00086312000911DDD2EDE2ED92E91112200CC
:100DC0008D14080021003E08C0003D08BF00C03659
:100DD000BF0CC036BF0C3F082600910021003D0823
:100DE0000339BF000430BF35890BF32E26001308EA
:100DF000CF3921003F042600930008002100C101E3
:100E0000B930C0004108C0024008860087010108CF
:100E1000BE004108013E8631C526863101302100E1
:100E2000C0004008C10708304102031C182F192FC9
:100E3000002F0800F3007308F200F20DF20D2100FC
:100E40001D087206833972069D001D140330890B3C
:100E5000272F000021009D149D182F2F302F2C2F9D
:100E60001C08F1001B08F000080021004503031DC9
:100E70003A2F3B2F482F460303193F2F402F482F6F
:100E80002000DC012100BA01BA0A8E3132268731F6
:100E90002100C601C60A8531E325873108000230EA
:100EA00021004506031D552F562F612F023046069F
:100EB00003195B2F5C2F612FBA01BA0A8E313226DB
:100EC000873102302100C6008531E32587310800D3
:100ED000033021004506031D6E2F6F2F7A2F03303C
:100EE00046060319742F752F7A2FBA01BA0A8E316C
:100EF0003226873104302100C6008531E325873151
:100F00000800033021004506031D872F882F932FEB
:100F10000330460603198D2F8E2F932FBA01BA0A7C
:100F20008E313226873103302100C6008531E3251A
:100F3000873108007108F3007008F200F336F20CF4
:100F4000F336F20C72082600910070080339F200A3
:100F50000430F235890BA92F1308CF39720493009E
:100F60000800200093110130D7070030D83D013030
:100F70005802903003195702031CBF2FC02FC62FF1
:100F80008F312B2787312000D701D801080020009E
:100F900093100130D5070030D63D00305602643042
:100FA00003195502031CD52FD62FDC2F8F311E2796
:100FB00087312000D501D601080021001508C0396D
:100FC00017389500D93020009500D930E3000B1177
:100FD0008B162F302100BD000E30BE008E31C92689
:100FE000873108002100BD003D0823009100151342
:100FF00095131514000000002300130808000034A6
:061000000034013400344D
:101C580008000800080008000800080028001E15F1
:101C68000800280017150800280017110800280088
:101C78001E11080028001715080020001108013956
:101C880008001630210097000800F00070082800AE
:101C980095000800F000700828009C00080020004B
:101CA800110E890C0139080021003E08A1003D08E9
:101CB800A000080021003E08A7003D08A600080073
:101CC80080302200980010309900080021003E085A
:101CD800AD003D08AC00080021003E08B1003D08F9
:101CE800B000080021003E08AF003D08AE00080023
:101CF80021003E08AB003D08AA00080021003E086C
:101D0800A9003D08A800080021003E08A3003D08DE
:101D1800A200080021003E08A5003D08A400080014
:101D28002100BD003D0824009100080064008001E6
:101D38000131890B9B2E00347030210099009801E5
:101D4800220096010800903021009E009B019C0112
:101D580001309D000800FF3020009B009A0191107F
:101D680004309C00080021003E082000E200210009
:101D78003D082000E10008000C3026009300910186
:101D88009201CF3025009E05080021003E08200062
:101D9800DE0021003D082000DD000800F0002000E2
:101DA800111ED72ED82ED32E700823009A000800B3
:101DB8008E3138268E3100308E3149268E31210001
:101DC800BA0108008E313B268E3100308E314E2606
:101DD8008E312100BA0108002400940195010130D8
:101DE800920021000D122400951208002100921281
:101DF800843022009100903092002000921221003D
:101E080092160800210012138430220093009130AA
:101E180094002000121321001217080020009901D5
:101E28009701960111101708E0001608DF00053029
:101E3800980008002100220823040319242F252FC5
:101E48002A2F23088A0022080A008F31080021005F
:101E5800240825040319312F322F372F25088A002B
:101E680024080A008F31080020009212210020085F
:101E780021040319402F412F462F21088A002008EA
:101E88000A008F31080020001213210026082704B9
:101E980003194F2F502F552F27088A0026080A00AC
:101EA8008F31080021002A082B0403195C2F5D2FAD
:101EB800622F2B088A002A080A008F312700161083
:101EC800080021002808290403196B2F6C2F712F93
:101ED80029088A0028080A008F312700961108006F
:101EE800F0012000111E792F7A2F812F23009E1ECA
:101EF8007E2F7F2F812FF001F00A700808000B1148
:101F08002000630895005D085E0403198C2F8D2F4F
:101F1800922F5E088A005D080A008F3108002000B1
:101F2800911E972F982F932F2100BB0123009D1CF2
:101F38009E2F9F2FA12F1D121D161908080027007C
:101F4800161CA72FA82FAB2F8F3156278F312700AC
:101F5800961DAF2FB02FB32F8F3165278F31080013
:101F6800043026009A00980199012C302100BD0008
:101F78000E30BE008E31B7268F312000931221001B
:101F880093160800F9302800960095012000931058
:101F9800210093143030BD000E30BE008E318826EB
:101FA8008F314930280097000800F93028009D003B
:101FB8009C0120009311210093153130BD000E3093
:101FC800BE008E318E268F31493028009E000800D1
:101FD80020009312260018082000CB0026001908BC
:101FE8002000CC004C08C5004B08C40062088A00D9
:081FF80061080A008F310800A6
:020000040001F9
:08000000FF3FFF3FFF3FFF3F00
:04000E00E43FFF3E8E
:10E00000FF0081008100FF00000000000000FF0011
:10E01000C200A10091008E004200890089007600B4
:10E020001F0010001000FF008F00890089007100A0
:10E030007E00890089007200090009000900FF00C4
:10E0400076008900890076004E00910091007E00E4
:10E0500000001800060018000000180060001800FA
:10E06000000000000000000000001800660018001A
:00000001FF
